{
  "_format": "hh-sol-artifact-1",
  "contractName": "LiquidationOperator",
  "sourceName": "contracts/LiquidationOperator.sol",
  "abi": [
    {
      "inputs": [],
      "stateMutability": "nonpayable",
      "type": "constructor"
    },
    {
      "inputs": [],
      "name": "AAVE_LENDING_POOL",
      "outputs": [
        {
          "internalType": "address",
          "name": "",
          "type": "address"
        }
      ],
      "stateMutability": "view",
      "type": "function"
    },
    {
      "inputs": [],
      "name": "TARGET_USER",
      "outputs": [
        {
          "internalType": "address",
          "name": "",
          "type": "address"
        }
      ],
      "stateMutability": "view",
      "type": "function"
    },
    {
      "inputs": [],
      "name": "UNISWAP_V2_FACTORY",
      "outputs": [
        {
          "internalType": "address",
          "name": "",
          "type": "address"
        }
      ],
      "stateMutability": "view",
      "type": "function"
    },
    {
      "inputs": [],
      "name": "USDT_TOKEN",
      "outputs": [
        {
          "internalType": "address",
          "name": "",
          "type": "address"
        }
      ],
      "stateMutability": "view",
      "type": "function"
    },
    {
      "inputs": [],
      "name": "WBTC_TOKEN",
      "outputs": [
        {
          "internalType": "address",
          "name": "",
          "type": "address"
        }
      ],
      "stateMutability": "view",
      "type": "function"
    },
    {
      "inputs": [],
      "name": "WETH_TOKEN",
      "outputs": [
        {
          "internalType": "address",
          "name": "",
          "type": "address"
        }
      ],
      "stateMutability": "view",
      "type": "function"
    },
    {
      "inputs": [],
      "name": "health_factor_decimals",
      "outputs": [
        {
          "internalType": "uint8",
          "name": "",
          "type": "uint8"
        }
      ],
      "stateMutability": "view",
      "type": "function"
    },
    {
      "inputs": [],
      "name": "lendingPool",
      "outputs": [
        {
          "internalType": "contract ILendingPool",
          "name": "",
          "type": "address"
        }
      ],
      "stateMutability": "view",
      "type": "function"
    },
    {
      "inputs": [],
      "name": "operate",
      "outputs": [],
      "stateMutability": "nonpayable",
      "type": "function"
    },
    {
      "inputs": [],
      "name": "uniswapFac",
      "outputs": [
        {
          "internalType": "contract IUniswapV2Factory",
          "name": "",
          "type": "address"
        }
      ],
      "stateMutability": "view",
      "type": "function"
    },
    {
      "inputs": [
        {
          "internalType": "address",
          "name": "to",
          "type": "address"
        },
        {
          "internalType": "uint256",
          "name": "amount0",
          "type": "uint256"
        },
        {
          "internalType": "uint256",
          "name": "debtTopay",
          "type": "uint256"
        },
        {
          "internalType": "bytes",
          "name": "data",
          "type": "bytes"
        }
      ],
      "name": "uniswapV2Call",
      "outputs": [],
      "stateMutability": "nonpayable",
      "type": "function"
    },
    {
      "stateMutability": "payable",
      "type": "receive"
    }
  ],
  "bytecode": "0x608060405234801561001057600080fd5b50600080546001600160a01b0319908116737d2768de32b0b80b7a3454c06bdac94a69ddc7a91790915560018054909116735c69bee701ef814a2b6a3edd4b1652cb9cc5aa6f1790556115d6806100686000396000f3fe6080604052600436106100a05760003560e01c806375d953621161006457806375d953621461017257806377b330c9146101925780638b56046b146101ba57806399d8fae3146101e2578063a59a99731461020a578063ad6788961461022a57600080fd5b806310d1e85c146100ac5780632ed41384146100ce57806337d277d41461010d5780637159a61814610135578063726a431a1461014a57600080fd5b366100a757005b600080fd5b3480156100b857600080fd5b506100cc6100c7366004611250565b610251565b005b3480156100da57600080fd5b506100f060008051602061158183398151915281565b6040516001600160a01b0390911681526020015b60405180910390f35b34801561011957600080fd5b506100f073c02aaa39b223fe8d0a0e5c4f27ead9083c756cc281565b34801561014157600080fd5b506100cc610585565b34801561015657600080fd5b506100f07359ce4a2ac5bc3f5f225439b2993b86b42f6d3e9f81565b34801561017e57600080fd5b506001546100f0906001600160a01b031681565b34801561019e57600080fd5b506100f073dac17f958d2ee523a2206206994597c13d831ec781565b3480156101c657600080fd5b506100f0737d2768de32b0b80b7a3454c06bdac94a69ddc7a981565b3480156101ee57600080fd5b506100f0735c69bee701ef814a2b6a3edd4b1652cb9cc5aa6f81565b34801561021657600080fd5b506000546100f0906001600160a01b031681565b34801561023657600080fd5b5061023f601281565b60405160ff9091168152602001610104565b60015460405163e6a4390560e01b815273dac17f958d2ee523a2206206994597c13d831ec7600482015260008051602061158183398151915260248201526000916001600160a01b03169063e6a439059060440160206040518083038186803b1580156102bd57600080fd5b505afa1580156102d1573d6000803e3d6000fd5b505050506040513d601f19601f820116820180604052508101906102f5919061122c565b9050336001600160a01b038216146103545760405162461bcd60e51b815260206004820152601a60248201527f4f6e6c7920556e697377617020706169722063616e2063616c6c00000000000060448201526064015b60405180910390fd5b600061036283850185611358565b60005460405163095ea7b360e01b81526001600160a01b0390911660048201526024810187905290915073dac17f958d2ee523a2206206994597c13d831ec79063095ea7b390604401600060405180830381600087803b1580156103c557600080fd5b505af11580156103d9573d6000803e3d6000fd5b50506000805460405162a718a960e01b8152600080516020611581833981519152600482015273dac17f958d2ee523a2206206994597c13d831ec760248201527359ce4a2ac5bc3f5f225439b2993b86b42f6d3e9f6044820152606481018a905260848101929092526001600160a01b0316925062a718a9915060a401600060405180830381600087803b15801561047057600080fd5b505af1158015610484573d6000803e3d6000fd5b505060405163095ea7b360e01b815230600482015260248101849052600080516020611581833981519152925063095ea7b39150604401600060405180830381600087803b1580156104d557600080fd5b505af11580156104e9573d6000803e3d6000fd5b505060405163a9059cbb60e01b81526001600160a01b038516600482015260248101849052600080516020611581833981519152925063a9059cbb9150604401602060405180830381600087803b15801561054357600080fd5b505af1158015610557573d6000803e3d6000fd5b505050506040513d601f19601f8201168201806040525081019061057b91906112e6565b5050505050505050565b336105c35760405162461bcd60e51b815260206004820152600e60248201526d24b73b30b634b21039b2b73232b960911b604482015260640161034b565b60008054604051632fe4a15f60e21b81527359ce4a2ac5bc3f5f225439b2993b86b42f6d3e9f6004820152829182916001600160a01b039091169063bf92857c9060240160c06040518083038186803b15801561061f57600080fd5b505afa158015610633573d6000803e3d6000fd5b505050506040513d601f19601f82011682018060405250810190610657919061138a565b955050505092509250670de0b6b3a764000081106106b75760405162461bcd60e51b815260206004820152601860248201527f55736572206973206e6f74206c6971756964617461626c650000000000000000604482015260640161034b565b6106ef604051806040016040528060168152602001752a37ba30b61021b7b63630ba32b930b6103bb13a319d60511b81525084610e2e565b610727604051806040016040528060168152602001752a37ba30b6103a37ba30b62232b13a103ab9b23a101d60511b81525083610e2e565b6107576040518060400160405280600e81526020016d3432b0b63a343330b1ba37b9101d60911b81525082610e2e565b60015460405163e6a4390560e01b815273dac17f958d2ee523a2206206994597c13d831ec7600482015260008051602061158183398151915260248201526000916001600160a01b03169063e6a439059060440160206040518083038186803b1580156107c357600080fd5b505afa1580156107d7573d6000803e3d6000fd5b505050506040513d601f19601f820116820180604052508101906107fb919061122c565b90508060005b600f8110156108de5760008061083973dac17f958d2ee523a2206206994597c13d831ec7600080516020611581833981519152610e77565b9150915060008160405160200161085291815260200190565b60408051601f198184030181529082905263022c0d9f60e01b825291506001600160a01b0386169063022c0d9f9061089590600090879030908790600401611421565b600060405180830381600087803b1580156108af57600080fd5b505af11580156108c3573d6000803e3d6000fd5b505050508360016108d491906114e2565b9350505050610801565b6040516370a0823160e01b8152306004820152600090600080516020611581833981519152906370a082319060240160206040518083038186803b15801561092557600080fd5b505afa158015610939573d6000803e3d6000fd5b505050506040513d601f19601f8201168201806040525081019061095d9190611371565b60015460405163e6a4390560e01b8152600080516020611581833981519152600482015273c02aaa39b223fe8d0a0e5c4f27ead9083c756cc260248201529192506000916001600160a01b039091169063e6a439059060440160206040518083038186803b1580156109ce57600080fd5b505afa1580156109e2573d6000803e3d6000fd5b505050506040513d601f19601f82011682018060405250810190610a06919061122c565b905060008190506000839050600080836001600160a01b0316630902f1ac6040518163ffffffff1660e01b815260040160606040518083038186803b158015610a4e57600080fd5b505afa158015610a62573d6000803e3d6000fd5b505050506040513d601f19601f82011682018060405250810190610a869190611308565b5090925090506000805160206115818339815191526040516370a0823160e01b8152306004820152600080516020611581833981519152906370a082319060240160206040518083038186803b158015610adf57600080fd5b505afa158015610af3573d6000803e3d6000fd5b505050506040513d601f19601f82011682018060405250810190610b179190611371565b93506000610b3885856001600160701b0316856001600160701b0316610fe6565b60405163095ea7b360e01b81526001600160a01b0389166004820152602481018790529091506000805160206115818339815191529063095ea7b390604401600060405180830381600087803b158015610b9157600080fd5b505af1158015610ba5573d6000803e3d6000fd5b505060405163a9059cbb60e01b81526001600160a01b038a16600482015260248101889052600080516020611581833981519152925063a9059cbb9150604401602060405180830381600087803b158015610bff57600080fd5b505af1158015610c13573d6000803e3d6000fd5b505050506040513d601f19601f82011682018060405250810190610c3791906112e6565b5060008511610c995760405162461bcd60e51b815260206004820152602860248201527f416d6f756e7420746f2073776170206d7573742062652067726561746572207460448201526768616e207a65726f60c01b606482015260840161034b565b604080516000808252602082019283905263022c0d9f60e01b9092526001600160a01b0388169163022c0d9f91610cd891908590309060248101611421565b600060405180830381600087803b158015610cf257600080fd5b505af1158015610d06573d6000803e3d6000fd5b50506040516370a0823160e01b815230600482015273c02aaa39b223fe8d0a0e5c4f27ead9083c756cc292506000915082906370a082319060240160206040518083038186803b158015610d5957600080fd5b505afa158015610d6d573d6000803e3d6000fd5b505050506040513d601f19601f82011682018060405250810190610d919190611371565b604051632e1a7d4d60e01b8152600481018290529091506001600160a01b03831690632e1a7d4d90602401600060405180830381600087803b158015610dd657600080fd5b505af1158015610dea573d6000803e3d6000fd5b50506040513392504780156108fc029250906000818181858888f19350505050158015610e1b573d6000803e3d6000fd5b5050505050505050505050505050505050565b610e738282604051602401610e44929190611478565b60408051601f198184030181529190526020810180516001600160e01b03166309710a9d60e41b1790526110c5565b5050565b60015460405163e6a4390560e01b81526001600160a01b0384811660048301528381166024830152600092839283929091169063e6a439059060440160206040518083038186803b158015610ecb57600080fd5b505afa158015610edf573d6000803e3d6000fd5b505050506040513d601f19601f82011682018060405250810190610f03919061122c565b9050600080826001600160a01b0316630902f1ac6040518163ffffffff1660e01b815260040160606040518083038186803b158015610f4157600080fd5b505afa158015610f55573d6000803e3d6000fd5b505050506040513d601f19601f82011682018060405250810190610f799190611308565b5091509150610fbd6040518060400160405280601d81526020017f74686973206973207374686520656d7072756e7465642075736474203a000000815250846110e6565b6001600160701b0380831690610fd89082908190851661112b565b909890975095505050505050565b600080841161104b5760405162461bcd60e51b815260206004820152602b60248201527f556e697377617056324c6962726172793a20494e53554646494349454e545f4960448201526a1394155517d05353d5539560aa1b606482015260840161034b565b60008311801561105b5750600082115b6110775760405162461bcd60e51b815260040161034b9061149a565b6000611085856103e561151c565b90506000611093848361151c565b90506000826110a4876103e861151c565b6110ae91906114e2565b90506110ba81836114fa565b979650505050505050565b80516a636f6e736f6c652e6c6f67602083016000808483855afa5050505050565b610e7382826040516024016110fc92919061144e565b60408051601f198184030181529190526020810180516001600160e01b031663319af33360e01b1790526110c5565b60008084116111915760405162461bcd60e51b815260206004820152602c60248201527f556e697377617056324c6962726172793a20494e53554646494349454e545f4f60448201526b155514155517d05353d5539560a21b606482015260840161034b565b6000831180156111a15750600082115b6111bd5760405162461bcd60e51b815260040161034b9061149a565b60006111c9858561151c565b6111d5906103e861151c565b905060006111e3868561153b565b6111ef906103e561151c565b90506111fb81836114fa565b6112069060016114e2565b9695505050505050565b80516001600160701b038116811461122757600080fd5b919050565b60006020828403121561123e57600080fd5b815161124981611568565b9392505050565b60008060008060006080868803121561126857600080fd5b853561127381611568565b94506020860135935060408601359250606086013567ffffffffffffffff8082111561129e57600080fd5b818801915088601f8301126112b257600080fd5b8135818111156112c157600080fd5b8960208285010111156112d357600080fd5b9699959850939650602001949392505050565b6000602082840312156112f857600080fd5b8151801515811461124957600080fd5b60008060006060848603121561131d57600080fd5b61132684611210565b925061133460208501611210565b9150604084015163ffffffff8116811461134d57600080fd5b809150509250925092565b60006020828403121561136a57600080fd5b5035919050565b60006020828403121561138357600080fd5b5051919050565b60008060008060008060c087890312156113a357600080fd5b865195506020870151945060408701519350606087015192506080870151915060a087015190509295509295509295565b6000815180845260005b818110156113fa576020818501810151868301820152016113de565b8181111561140c576000602083870101525b50601f01601f19169290920160200192915050565b84815283602082015260018060a01b038316604082015260806060820152600061120660808301846113d4565b60408152600061146160408301856113d4565b905060018060a01b03831660208301529392505050565b60408152600061148b60408301856113d4565b90508260208301529392505050565b60208082526028908201527f556e697377617056324c6962726172793a20494e53554646494349454e545f4c604082015267495155494449545960c01b606082015260800190565b600082198211156114f5576114f5611552565b500190565b60008261151757634e487b7160e01b600052601260045260246000fd5b500490565b600081600019048311821515161561153657611536611552565b500290565b60008282101561154d5761154d611552565b500390565b634e487b7160e01b600052601160045260246000fd5b6001600160a01b038116811461157d57600080fd5b5056fe0000000000000000000000002260fac5e5542a773aa44fbcfedf7c193bc2c599a26469706673582212208e5974b8ef4256184d2415ff3543b1d0b64f9738be1cc6b3cedd5ca0bac0b7f264736f6c63430008070033",
  "linkReferences": {},
  "deployedLinkReferences": {}
}